{
  "_format": "hh-sol-artifact-1",
  "contractName": "TokenMinter",
  "sourceName": "contracts/TokenMinter.sol",
  "abi": [
    {
      "inputs": [],
      "stateMutability": "nonpayable",
      "type": "constructor"
    },
    {
      "anonymous": false,
      "inputs": [
        {
          "indexed": true,
          "internalType": "address",
          "name": "owner",
          "type": "address"
        },
        {
          "indexed": true,
          "internalType": "address",
          "name": "approved",
          "type": "address"
        },
        {
          "indexed": true,
          "internalType": "uint256",
          "name": "tokenId",
          "type": "uint256"
        }
      ],
      "name": "Approval",
      "type": "event"
    },
    {
      "anonymous": false,
      "inputs": [
        {
          "indexed": true,
          "internalType": "address",
          "name": "owner",
          "type": "address"
        },
        {
          "indexed": true,
          "internalType": "address",
          "name": "operator",
          "type": "address"
        },
        {
          "indexed": false,
          "internalType": "bool",
          "name": "approved",
          "type": "bool"
        }
      ],
      "name": "ApprovalForAll",
      "type": "event"
    },
    {
      "anonymous": false,
      "inputs": [
        {
          "indexed": true,
          "internalType": "address",
          "name": "previousOwner",
          "type": "address"
        },
        {
          "indexed": true,
          "internalType": "address",
          "name": "newOwner",
          "type": "address"
        }
      ],
      "name": "OwnershipTransferred",
      "type": "event"
    },
    {
      "anonymous": false,
      "inputs": [
        {
          "indexed": true,
          "internalType": "address",
          "name": "from",
          "type": "address"
        },
        {
          "indexed": true,
          "internalType": "address",
          "name": "to",
          "type": "address"
        },
        {
          "indexed": true,
          "internalType": "uint256",
          "name": "tokenId",
          "type": "uint256"
        }
      ],
      "name": "Transfer",
      "type": "event"
    },
    {
      "inputs": [],
      "name": "MAX_SUPPLY",
      "outputs": [
        {
          "internalType": "uint256",
          "name": "",
          "type": "uint256"
        }
      ],
      "stateMutability": "view",
      "type": "function"
    },
    {
      "inputs": [
        {
          "internalType": "address",
          "name": "to",
          "type": "address"
        },
        {
          "internalType": "uint256",
          "name": "tokenId",
          "type": "uint256"
        }
      ],
      "name": "approve",
      "outputs": [],
      "stateMutability": "nonpayable",
      "type": "function"
    },
    {
      "inputs": [
        {
          "internalType": "address",
          "name": "owner",
          "type": "address"
        }
      ],
      "name": "balanceOf",
      "outputs": [
        {
          "internalType": "uint256",
          "name": "",
          "type": "uint256"
        }
      ],
      "stateMutability": "view",
      "type": "function"
    },
    {
      "inputs": [
        {
          "internalType": "uint256",
          "name": "tokenId",
          "type": "uint256"
        }
      ],
      "name": "getApproved",
      "outputs": [
        {
          "internalType": "address",
          "name": "",
          "type": "address"
        }
      ],
      "stateMutability": "view",
      "type": "function"
    },
    {
      "inputs": [
        {
          "internalType": "address",
          "name": "owner",
          "type": "address"
        },
        {
          "internalType": "address",
          "name": "operator",
          "type": "address"
        }
      ],
      "name": "isApprovedForAll",
      "outputs": [
        {
          "internalType": "bool",
          "name": "",
          "type": "bool"
        }
      ],
      "stateMutability": "view",
      "type": "function"
    },
    {
      "inputs": [],
      "name": "mintRate",
      "outputs": [
        {
          "internalType": "uint256",
          "name": "",
          "type": "uint256"
        }
      ],
      "stateMutability": "view",
      "type": "function"
    },
    {
      "inputs": [],
      "name": "name",
      "outputs": [
        {
          "internalType": "string",
          "name": "",
          "type": "string"
        }
      ],
      "stateMutability": "view",
      "type": "function"
    },
    {
      "inputs": [],
      "name": "owner",
      "outputs": [
        {
          "internalType": "address",
          "name": "",
          "type": "address"
        }
      ],
      "stateMutability": "view",
      "type": "function"
    },
    {
      "inputs": [
        {
          "internalType": "uint256",
          "name": "tokenId",
          "type": "uint256"
        }
      ],
      "name": "ownerOf",
      "outputs": [
        {
          "internalType": "address",
          "name": "",
          "type": "address"
        }
      ],
      "stateMutability": "view",
      "type": "function"
    },
    {
      "inputs": [],
      "name": "renounceOwnership",
      "outputs": [],
      "stateMutability": "nonpayable",
      "type": "function"
    },
    {
      "inputs": [
        {
          "internalType": "address",
          "name": "to",
          "type": "address"
        }
      ],
      "name": "safeMint",
      "outputs": [],
      "stateMutability": "payable",
      "type": "function"
    },
    {
      "inputs": [
        {
          "internalType": "address",
          "name": "from",
          "type": "address"
        },
        {
          "internalType": "address",
          "name": "to",
          "type": "address"
        },
        {
          "internalType": "uint256",
          "name": "tokenId",
          "type": "uint256"
        }
      ],
      "name": "safeTransferFrom",
      "outputs": [],
      "stateMutability": "nonpayable",
      "type": "function"
    },
    {
      "inputs": [
        {
          "internalType": "address",
          "name": "from",
          "type": "address"
        },
        {
          "internalType": "address",
          "name": "to",
          "type": "address"
        },
        {
          "internalType": "uint256",
          "name": "tokenId",
          "type": "uint256"
        },
        {
          "internalType": "bytes",
          "name": "_data",
          "type": "bytes"
        }
      ],
      "name": "safeTransferFrom",
      "outputs": [],
      "stateMutability": "nonpayable",
      "type": "function"
    },
    {
      "inputs": [
        {
          "internalType": "address",
          "name": "operator",
          "type": "address"
        },
        {
          "internalType": "bool",
          "name": "approved",
          "type": "bool"
        }
      ],
      "name": "setApprovalForAll",
      "outputs": [],
      "stateMutability": "nonpayable",
      "type": "function"
    },
    {
      "inputs": [
        {
          "internalType": "bytes4",
          "name": "interfaceId",
          "type": "bytes4"
        }
      ],
      "name": "supportsInterface",
      "outputs": [
        {
          "internalType": "bool",
          "name": "",
          "type": "bool"
        }
      ],
      "stateMutability": "view",
      "type": "function"
    },
    {
      "inputs": [],
      "name": "symbol",
      "outputs": [
        {
          "internalType": "string",
          "name": "",
          "type": "string"
        }
      ],
      "stateMutability": "view",
      "type": "function"
    },
    {
      "inputs": [
        {
          "internalType": "uint256",
          "name": "index",
          "type": "uint256"
        }
      ],
      "name": "tokenByIndex",
      "outputs": [
        {
          "internalType": "uint256",
          "name": "",
          "type": "uint256"
        }
      ],
      "stateMutability": "view",
      "type": "function"
    },
    {
      "inputs": [
        {
          "internalType": "address",
          "name": "owner",
          "type": "address"
        },
        {
          "internalType": "uint256",
          "name": "index",
          "type": "uint256"
        }
      ],
      "name": "tokenOfOwnerByIndex",
      "outputs": [
        {
          "internalType": "uint256",
          "name": "",
          "type": "uint256"
        }
      ],
      "stateMutability": "view",
      "type": "function"
    },
    {
      "inputs": [
        {
          "internalType": "uint256",
          "name": "tokenId",
          "type": "uint256"
        }
      ],
      "name": "tokenURI",
      "outputs": [
        {
          "internalType": "string",
          "name": "",
          "type": "string"
        }
      ],
      "stateMutability": "view",
      "type": "function"
    },
    {
      "inputs": [],
      "name": "totalSupply",
      "outputs": [
        {
          "internalType": "uint256",
          "name": "",
          "type": "uint256"
        }
      ],
      "stateMutability": "view",
      "type": "function"
    },
    {
      "inputs": [
        {
          "internalType": "address",
          "name": "from",
          "type": "address"
        },
        {
          "internalType": "address",
          "name": "to",
          "type": "address"
        },
        {
          "internalType": "uint256",
          "name": "tokenId",
          "type": "uint256"
        }
      ],
      "name": "transferFrom",
      "outputs": [],
      "stateMutability": "nonpayable",
      "type": "function"
    },
    {
      "inputs": [
        {
          "internalType": "address",
          "name": "newOwner",
          "type": "address"
        }
      ],
      "name": "transferOwnership",
      "outputs": [],
      "stateMutability": "nonpayable",
      "type": "function"
    }
  ],
  "bytecode": "0x608060405267016345785d8a0000600c5561012c600d553480156200002357600080fd5b506040805180820182526009815268135e50995cdd13919560ba1b60208083019182528351808501909452600384526226a12760e91b9084015281519192916200007091600091620000ff565b50805162000086906001906020840190620000ff565b505050620000a36200009d620000a960201b60201c565b620000ad565b620001e2565b3390565b600a80546001600160a01b038381166001600160a01b0319831681179093556040519116919082907f8be0079c531659141344cd1fd0a4f28419497f9722a3daafe3b4186f6b6457e090600090a35050565b8280546200010d90620001a5565b90600052602060002090601f0160209004810192826200013157600085556200017c565b82601f106200014c57805160ff19168380011785556200017c565b828001600101855582156200017c579182015b828111156200017c5782518255916020019190600101906200015f565b506200018a9291506200018e565b5090565b5b808211156200018a57600081556001016200018f565b600181811c90821680620001ba57607f821691505b60208210811415620001dc57634e487b7160e01b600052602260045260246000fd5b50919050565b611c0580620001f26000396000f3fe6080604052600436106101355760003560e01c80636352211e116100ab578063a22cb4651161006f578063a22cb4651461033b578063b88d4fde1461035b578063c87b56dd1461037b578063ca0dcf161461039b578063e985e9c5146103b1578063f2fde38b146103fa57600080fd5b80636352211e146102b357806370a08231146102d3578063715018a6146102f35780638da5cb5b1461030857806395d89b411461032657600080fd5b806323b872dd116100fd57806323b872dd1461020a5780632f745c591461022a57806332cb6b0c1461024a57806340d097c31461026057806342842e0e146102735780634f6ccce71461029357600080fd5b806301ffc9a71461013a57806306fdde031461016f578063081812fc14610191578063095ea7b3146101c957806318160ddd146101eb575b600080fd5b34801561014657600080fd5b5061015a610155366004611900565b61041a565b60405190151581526020015b60405180910390f35b34801561017b57600080fd5b5061018461042b565b60405161016691906119e8565b34801561019d57600080fd5b506101b16101ac366004611938565b6104bd565b6040516001600160a01b039091168152602001610166565b3480156101d557600080fd5b506101e96101e43660046118d7565b610557565b005b3480156101f757600080fd5b506008545b604051908152602001610166565b34801561021657600080fd5b506101e961022536600461178d565b61066d565b34801561023657600080fd5b506101fc6102453660046118d7565b61069e565b34801561025657600080fd5b506101fc600d5481565b6101e961026e366004611741565b610734565b34801561027f57600080fd5b506101e961028e36600461178d565b6107e8565b34801561029f57600080fd5b506101fc6102ae366004611938565b610803565b3480156102bf57600080fd5b506101b16102ce366004611938565b6108a4565b3480156102df57600080fd5b506101fc6102ee366004611741565b61091b565b3480156102ff57600080fd5b506101e96109a2565b34801561031457600080fd5b50600a546001600160a01b03166101b1565b34801561033257600080fd5b50610184610a08565b34801561034757600080fd5b506101e961035636600461189d565b610a17565b34801561036757600080fd5b506101e96103763660046117c8565b610a22565b34801561038757600080fd5b50610184610396366004611938565b610a5a565b3480156103a757600080fd5b506101fc600c5481565b3480156103bd57600080fd5b5061015a6103cc36600461175b565b6001600160a01b03918216600090815260056020908152604080832093909416825291909152205460ff1690565b34801561040657600080fd5b506101e9610415366004611741565b610b42565b600061042582610c0d565b92915050565b60606000805461043a90611b0d565b80601f016020809104026020016040519081016040528092919081815260200182805461046690611b0d565b80156104b35780601f10610488576101008083540402835291602001916104b3565b820191906000526020600020905b81548152906001019060200180831161049657829003601f168201915b5050505050905090565b6000818152600260205260408120546001600160a01b031661053b5760405162461bcd60e51b815260206004820152602c60248201527f4552433732313a20617070726f76656420717565727920666f72206e6f6e657860448201526b34b9ba32b73a103a37b5b2b760a11b60648201526084015b60405180910390fd5b506000908152600460205260409020546001600160a01b031690565b6000610562826108a4565b9050806001600160a01b0316836001600160a01b031614156105d05760405162461bcd60e51b815260206004820152602160248201527f4552433732313a20617070726f76616c20746f2063757272656e74206f776e656044820152603960f91b6064820152608401610532565b336001600160a01b03821614806105ec57506105ec81336103cc565b61065e5760405162461bcd60e51b815260206004820152603860248201527f4552433732313a20617070726f76652063616c6c6572206973206e6f74206f7760448201527f6e6572206e6f7220617070726f76656420666f7220616c6c00000000000000006064820152608401610532565b6106688383610c32565b505050565b6106773382610ca0565b6106935760405162461bcd60e51b815260040161053290611a4d565b610668838383610d97565b60006106a98361091b565b821061070b5760405162461bcd60e51b815260206004820152602b60248201527f455243373231456e756d657261626c653a206f776e657220696e646578206f7560448201526a74206f6620626f756e647360a81b6064820152608401610532565b506001600160a01b03919091166000908152600660209081526040808320938352929052205490565b600d54600854106107795760405162461bcd60e51b815260206004820152600f60248201526e43616e6074206d696e74206d6f726560881b6044820152606401610532565b600c543411156107bf5760405162461bcd60e51b8152602060048201526011602482015270436865636b20796f752062616c616e636560781b6044820152606401610532565b60006107ca600b5490565b90506107da600b80546001019055565b6107e48282610f42565b5050565b61066883838360405180602001604052806000815250610a22565b600061080e60085490565b82106108715760405162461bcd60e51b815260206004820152602c60248201527f455243373231456e756d657261626c653a20676c6f62616c20696e646578206f60448201526b7574206f6620626f756e647360a01b6064820152608401610532565b6008828154811061089257634e487b7160e01b600052603260045260246000fd5b90600052602060002001549050919050565b6000818152600260205260408120546001600160a01b0316806104255760405162461bcd60e51b815260206004820152602960248201527f4552433732313a206f776e657220717565727920666f72206e6f6e657869737460448201526832b73a103a37b5b2b760b91b6064820152608401610532565b60006001600160a01b0382166109865760405162461bcd60e51b815260206004820152602a60248201527f4552433732313a2062616c616e636520717565727920666f7220746865207a65604482015269726f206164647265737360b01b6064820152608401610532565b506001600160a01b031660009081526003602052604090205490565b600a546001600160a01b031633146109fc5760405162461bcd60e51b815260206004820181905260248201527f4f776e61626c653a2063616c6c6572206973206e6f7420746865206f776e65726044820152606401610532565b610a066000610f5c565b565b60606001805461043a90611b0d565b6107e4338383610fae565b610a2c3383610ca0565b610a485760405162461bcd60e51b815260040161053290611a4d565b610a548484848461107d565b50505050565b6000818152600260205260409020546060906001600160a01b0316610ad95760405162461bcd60e51b815260206004820152602f60248201527f4552433732314d657461646174613a2055524920717565727920666f72206e6f60448201526e3732bc34b9ba32b73a103a37b5b2b760891b6064820152608401610532565b6000610af060408051602081019091526000815290565b90506000815111610b105760405180602001604052806000815250610b3b565b80610b1a846110b0565b604051602001610b2b92919061197c565b6040516020818303038152906040525b9392505050565b600a546001600160a01b03163314610b9c5760405162461bcd60e51b815260206004820181905260248201527f4f776e61626c653a2063616c6c6572206973206e6f7420746865206f776e65726044820152606401610532565b6001600160a01b038116610c015760405162461bcd60e51b815260206004820152602660248201527f4f776e61626c653a206e6577206f776e657220697320746865207a65726f206160448201526564647265737360d01b6064820152608401610532565b610c0a81610f5c565b50565b60006001600160e01b0319821663780e9d6360e01b14806104255750610425826111ca565b600081815260046020526040902080546001600160a01b0319166001600160a01b0384169081179091558190610c67826108a4565b6001600160a01b03167f8c5be1e5ebec7d5bd14f71427d1e84f3dd0314c0f7b2291e5b200ac8c7c3b92560405160405180910390a45050565b6000818152600260205260408120546001600160a01b0316610d195760405162461bcd60e51b815260206004820152602c60248201527f4552433732313a206f70657261746f7220717565727920666f72206e6f6e657860448201526b34b9ba32b73a103a37b5b2b760a11b6064820152608401610532565b6000610d24836108a4565b9050806001600160a01b0316846001600160a01b03161480610d5f5750836001600160a01b0316610d54846104bd565b6001600160a01b0316145b80610d8f57506001600160a01b0380821660009081526005602090815260408083209388168352929052205460ff165b949350505050565b826001600160a01b0316610daa826108a4565b6001600160a01b031614610e125760405162461bcd60e51b815260206004820152602960248201527f4552433732313a207472616e73666572206f6620746f6b656e2074686174206960448201526839903737ba1037bbb760b91b6064820152608401610532565b6001600160a01b038216610e745760405162461bcd60e51b8152602060048201526024808201527f4552433732313a207472616e7366657220746f20746865207a65726f206164646044820152637265737360e01b6064820152608401610532565b610e7f83838361121a565b610e8a600082610c32565b6001600160a01b0383166000908152600360205260408120805460019290610eb3908490611aca565b90915550506001600160a01b0382166000908152600360205260408120805460019290610ee1908490611a9e565b909155505060008181526002602052604080822080546001600160a01b0319166001600160a01b0386811691821790925591518493918716917fddf252ad1be2c89b69c2b068fc378daa952ba7f163c4a11628f55a4df523b3ef91a4505050565b6107e4828260405180602001604052806000815250611225565b600a80546001600160a01b038381166001600160a01b0319831681179093556040519116919082907f8be0079c531659141344cd1fd0a4f28419497f9722a3daafe3b4186f6b6457e090600090a35050565b816001600160a01b0316836001600160a01b031614156110105760405162461bcd60e51b815260206004820152601960248201527f4552433732313a20617070726f766520746f2063616c6c6572000000000000006044820152606401610532565b6001600160a01b03838116600081815260056020908152604080832094871680845294825291829020805460ff191686151590811790915591519182527f17307eab39ab6107e8899845ad3d59bd9653f200f220920489ca2b5937696c31910160405180910390a3505050565b611088848484610d97565b61109484848484611258565b610a545760405162461bcd60e51b8152600401610532906119fb565b6060816110d45750506040805180820190915260018152600360fc1b602082015290565b8160005b81156110fe57806110e881611b48565b91506110f79050600a83611ab6565b91506110d8565b60008167ffffffffffffffff81111561112757634e487b7160e01b600052604160045260246000fd5b6040519080825280601f01601f191660200182016040528015611151576020820181803683370190505b5090505b8415610d8f57611166600183611aca565b9150611173600a86611b63565b61117e906030611a9e565b60f81b8183815181106111a157634e487b7160e01b600052603260045260246000fd5b60200101906001600160f81b031916908160001a9053506111c3600a86611ab6565b9450611155565b60006001600160e01b031982166380ac58cd60e01b14806111fb57506001600160e01b03198216635b5e139f60e01b145b8061042557506301ffc9a760e01b6001600160e01b0319831614610425565b610668838383611365565b61122f838361141d565b61123c6000848484611258565b6106685760405162461bcd60e51b8152600401610532906119fb565b60006001600160a01b0384163b1561135a57604051630a85bd0160e11b81526001600160a01b0385169063150b7a029061129c9033908990889088906004016119ab565b602060405180830381600087803b1580156112b657600080fd5b505af19250505080156112e6575060408051601f3d908101601f191682019092526112e39181019061191c565b60015b611340573d808015611314576040519150601f19603f3d011682016040523d82523d6000602084013e611319565b606091505b5080516113385760405162461bcd60e51b8152600401610532906119fb565b805181602001fd5b6001600160e01b031916630a85bd0160e11b149050610d8f565b506001949350505050565b6001600160a01b0383166113c0576113bb81600880546000838152600960205260408120829055600182018355919091527ff3f7a9fe364faab93b216da50a3214154f22a0a2b415b23a84c8169e8b636ee30155565b6113e3565b816001600160a01b0316836001600160a01b0316146113e3576113e3838261156b565b6001600160a01b0382166113fa5761066881611608565b826001600160a01b0316826001600160a01b0316146106685761066882826116e1565b6001600160a01b0382166114735760405162461bcd60e51b815260206004820181905260248201527f4552433732313a206d696e7420746f20746865207a65726f20616464726573736044820152606401610532565b6000818152600260205260409020546001600160a01b0316156114d85760405162461bcd60e51b815260206004820152601c60248201527f4552433732313a20746f6b656e20616c7265616479206d696e746564000000006044820152606401610532565b6114e46000838361121a565b6001600160a01b038216600090815260036020526040812080546001929061150d908490611a9e565b909155505060008181526002602052604080822080546001600160a01b0319166001600160a01b03861690811790915590518392907fddf252ad1be2c89b69c2b068fc378daa952ba7f163c4a11628f55a4df523b3ef908290a45050565b600060016115788461091b565b6115829190611aca565b6000838152600760205260409020549091508082146115d5576001600160a01b03841660009081526006602090815260408083208584528252808320548484528184208190558352600790915290208190555b5060009182526007602090815260408084208490556001600160a01b039094168352600681528383209183525290812055565b60085460009061161a90600190611aca565b6000838152600960205260408120546008805493945090928490811061165057634e487b7160e01b600052603260045260246000fd5b90600052602060002001549050806008838154811061167f57634e487b7160e01b600052603260045260246000fd5b60009182526020808320909101929092558281526009909152604080822084905585825281205560088054806116c557634e487b7160e01b600052603160045260246000fd5b6001900381819060005260206000200160009055905550505050565b60006116ec8361091b565b6001600160a01b039093166000908152600660209081526040808320868452825280832085905593825260079052919091209190915550565b80356001600160a01b038116811461173c57600080fd5b919050565b600060208284031215611752578081fd5b610b3b82611725565b6000806040838503121561176d578081fd5b61177683611725565b915061178460208401611725565b90509250929050565b6000806000606084860312156117a1578081fd5b6117aa84611725565b92506117b860208501611725565b9150604084013590509250925092565b600080600080608085870312156117dd578081fd5b6117e685611725565b93506117f460208601611725565b925060408501359150606085013567ffffffffffffffff80821115611817578283fd5b818701915087601f83011261182a578283fd5b81358181111561183c5761183c611ba3565b604051601f8201601f19908116603f0116810190838211818310171561186457611864611ba3565b816040528281528a602084870101111561187c578586fd5b82602086016020830137918201602001949094529598949750929550505050565b600080604083850312156118af578182fd5b6118b883611725565b9150602083013580151581146118cc578182fd5b809150509250929050565b600080604083850312156118e9578182fd5b6118f283611725565b946020939093013593505050565b600060208284031215611911578081fd5b8135610b3b81611bb9565b60006020828403121561192d578081fd5b8151610b3b81611bb9565b600060208284031215611949578081fd5b5035919050565b60008151808452611968816020860160208601611ae1565b601f01601f19169290920160200192915050565b6000835161198e818460208801611ae1565b8351908301906119a2818360208801611ae1565b01949350505050565b6001600160a01b03858116825284166020820152604081018390526080606082018190526000906119de90830184611950565b9695505050505050565b602081526000610b3b6020830184611950565b60208082526032908201527f4552433732313a207472616e7366657220746f206e6f6e20455243373231526560408201527131b2b4bb32b91034b6b83632b6b2b73a32b960711b606082015260800190565b60208082526031908201527f4552433732313a207472616e736665722063616c6c6572206973206e6f74206f6040820152701ddb995c881b9bdc88185c1c1c9bdd9959607a1b606082015260800190565b60008219821115611ab157611ab1611b77565b500190565b600082611ac557611ac5611b8d565b500490565b600082821015611adc57611adc611b77565b500390565b60005b83811015611afc578181015183820152602001611ae4565b83811115610a545750506000910152565b600181811c90821680611b2157607f821691505b60208210811415611b4257634e487b7160e01b600052602260045260246000fd5b50919050565b6000600019821415611b5c57611b5c611b77565b5060010190565b600082611b7257611b72611b8d565b500690565b634e487b7160e01b600052601160045260246000fd5b634e487b7160e01b600052601260045260246000fd5b634e487b7160e01b600052604160045260246000fd5b6001600160e01b031981168114610c0a57600080fdfea2646970667358221220862fcd077e2979c73bb69c37a3f7709ec40121da06d7f5570bbe80cd0148bf2564736f6c63430008040033",
  "linkReferences": {},
  "deployedLinkReferences": {}
}